{
  "_format": "hh-sol-artifact-1",
  "contractName": "Domains",
  "sourceName": "contracts/Domains.sol",
  "abi": [
    {
      "inputs": [
        {
          "internalType": "string",
          "name": "_tld",
          "type": "string"
        }
      ],
      "stateMutability": "payable",
      "type": "constructor"
    },
    {
      "inputs": [],
      "name": "Unauthorized",
      "type": "error"
    },
    {
      "anonymous": false,
      "inputs": [
        {
          "indexed": true,
          "internalType": "address",
          "name": "owner",
          "type": "address"
        },
        {
          "indexed": true,
          "internalType": "address",
          "name": "approved",
          "type": "address"
        },
        {
          "indexed": true,
          "internalType": "uint256",
          "name": "tokenId",
          "type": "uint256"
        }
      ],
      "name": "Approval",
      "type": "event"
    },
    {
      "anonymous": false,
      "inputs": [
        {
          "indexed": true,
          "internalType": "address",
          "name": "owner",
          "type": "address"
        },
        {
          "indexed": true,
          "internalType": "address",
          "name": "operator",
          "type": "address"
        },
        {
          "indexed": false,
          "internalType": "bool",
          "name": "approved",
          "type": "bool"
        }
      ],
      "name": "ApprovalForAll",
      "type": "event"
    },
    {
      "anonymous": false,
      "inputs": [
        {
          "indexed": true,
          "internalType": "address",
          "name": "from",
          "type": "address"
        },
        {
          "indexed": true,
          "internalType": "address",
          "name": "to",
          "type": "address"
        },
        {
          "indexed": true,
          "internalType": "uint256",
          "name": "tokenId",
          "type": "uint256"
        }
      ],
      "name": "Transfer",
      "type": "event"
    },
    {
      "inputs": [
        {
          "internalType": "address",
          "name": "to",
          "type": "address"
        },
        {
          "internalType": "uint256",
          "name": "tokenId",
          "type": "uint256"
        }
      ],
      "name": "approve",
      "outputs": [],
      "stateMutability": "nonpayable",
      "type": "function"
    },
    {
      "inputs": [
        {
          "internalType": "address",
          "name": "owner",
          "type": "address"
        }
      ],
      "name": "balanceOf",
      "outputs": [
        {
          "internalType": "uint256",
          "name": "",
          "type": "uint256"
        }
      ],
      "stateMutability": "view",
      "type": "function"
    },
    {
      "inputs": [
        {
          "internalType": "string",
          "name": "name",
          "type": "string"
        }
      ],
      "name": "checkValidity",
      "outputs": [
        {
          "internalType": "bool",
          "name": "",
          "type": "bool"
        }
      ],
      "stateMutability": "pure",
      "type": "function"
    },
    {
      "inputs": [
        {
          "internalType": "string",
          "name": "",
          "type": "string"
        }
      ],
      "name": "domains",
      "outputs": [
        {
          "internalType": "address",
          "name": "",
          "type": "address"
        }
      ],
      "stateMutability": "view",
      "type": "function"
    },
    {
      "inputs": [
        {
          "internalType": "string",
          "name": "name",
          "type": "string"
        }
      ],
      "name": "getAddress",
      "outputs": [
        {
          "internalType": "address",
          "name": "",
          "type": "address"
        }
      ],
      "stateMutability": "view",
      "type": "function"
    },
    {
      "inputs": [],
      "name": "getAllNames",
      "outputs": [
        {
          "internalType": "string[]",
          "name": "",
          "type": "string[]"
        }
      ],
      "stateMutability": "view",
      "type": "function"
    },
    {
      "inputs": [
        {
          "internalType": "uint256",
          "name": "tokenId",
          "type": "uint256"
        }
      ],
      "name": "getApproved",
      "outputs": [
        {
          "internalType": "address",
          "name": "",
          "type": "address"
        }
      ],
      "stateMutability": "view",
      "type": "function"
    },
    {
      "inputs": [
        {
          "internalType": "string",
          "name": "name",
          "type": "string"
        }
      ],
      "name": "getRecord",
      "outputs": [
        {
          "internalType": "string",
          "name": "",
          "type": "string"
        }
      ],
      "stateMutability": "view",
      "type": "function"
    },
    {
      "inputs": [
        {
          "internalType": "address",
          "name": "owner",
          "type": "address"
        },
        {
          "internalType": "address",
          "name": "operator",
          "type": "address"
        }
      ],
      "name": "isApprovedForAll",
      "outputs": [
        {
          "internalType": "bool",
          "name": "",
          "type": "bool"
        }
      ],
      "stateMutability": "view",
      "type": "function"
    },
    {
      "inputs": [],
      "name": "isOwner",
      "outputs": [
        {
          "internalType": "bool",
          "name": "",
          "type": "bool"
        }
      ],
      "stateMutability": "view",
      "type": "function"
    },
    {
      "inputs": [],
      "name": "name",
      "outputs": [
        {
          "internalType": "string",
          "name": "",
          "type": "string"
        }
      ],
      "stateMutability": "view",
      "type": "function"
    },
    {
      "inputs": [
        {
          "internalType": "uint256",
          "name": "",
          "type": "uint256"
        }
      ],
      "name": "names",
      "outputs": [
        {
          "internalType": "string",
          "name": "",
          "type": "string"
        }
      ],
      "stateMutability": "view",
      "type": "function"
    },
    {
      "inputs": [],
      "name": "owner",
      "outputs": [
        {
          "internalType": "address payable",
          "name": "",
          "type": "address"
        }
      ],
      "stateMutability": "view",
      "type": "function"
    },
    {
      "inputs": [
        {
          "internalType": "uint256",
          "name": "tokenId",
          "type": "uint256"
        }
      ],
      "name": "ownerOf",
      "outputs": [
        {
          "internalType": "address",
          "name": "",
          "type": "address"
        }
      ],
      "stateMutability": "view",
      "type": "function"
    },
    {
      "inputs": [
        {
          "internalType": "string",
          "name": "name",
          "type": "string"
        }
      ],
      "name": "price",
      "outputs": [
        {
          "internalType": "uint256",
          "name": "",
          "type": "uint256"
        }
      ],
      "stateMutability": "pure",
      "type": "function"
    },
    {
      "inputs": [
        {
          "internalType": "string",
          "name": "",
          "type": "string"
        }
      ],
      "name": "records",
      "outputs": [
        {
          "internalType": "string",
          "name": "",
          "type": "string"
        }
      ],
      "stateMutability": "view",
      "type": "function"
    },
    {
      "inputs": [
        {
          "internalType": "string",
          "name": "name",
          "type": "string"
        }
      ],
      "name": "register",
      "outputs": [],
      "stateMutability": "payable",
      "type": "function"
    },
    {
      "inputs": [
        {
          "internalType": "address",
          "name": "from",
          "type": "address"
        },
        {
          "internalType": "address",
          "name": "to",
          "type": "address"
        },
        {
          "internalType": "uint256",
          "name": "tokenId",
          "type": "uint256"
        }
      ],
      "name": "safeTransferFrom",
      "outputs": [],
      "stateMutability": "nonpayable",
      "type": "function"
    },
    {
      "inputs": [
        {
          "internalType": "address",
          "name": "from",
          "type": "address"
        },
        {
          "internalType": "address",
          "name": "to",
          "type": "address"
        },
        {
          "internalType": "uint256",
          "name": "tokenId",
          "type": "uint256"
        },
        {
          "internalType": "bytes",
          "name": "_data",
          "type": "bytes"
        }
      ],
      "name": "safeTransferFrom",
      "outputs": [],
      "stateMutability": "nonpayable",
      "type": "function"
    },
    {
      "inputs": [
        {
          "internalType": "address",
          "name": "operator",
          "type": "address"
        },
        {
          "internalType": "bool",
          "name": "approved",
          "type": "bool"
        }
      ],
      "name": "setApprovalForAll",
      "outputs": [],
      "stateMutability": "nonpayable",
      "type": "function"
    },
    {
      "inputs": [
        {
          "internalType": "string",
          "name": "name",
          "type": "string"
        },
        {
          "internalType": "string",
          "name": "record",
          "type": "string"
        }
      ],
      "name": "setRecord",
      "outputs": [],
      "stateMutability": "nonpayable",
      "type": "function"
    },
    {
      "inputs": [
        {
          "internalType": "bytes4",
          "name": "interfaceId",
          "type": "bytes4"
        }
      ],
      "name": "supportsInterface",
      "outputs": [
        {
          "internalType": "bool",
          "name": "",
          "type": "bool"
        }
      ],
      "stateMutability": "view",
      "type": "function"
    },
    {
      "inputs": [],
      "name": "symbol",
      "outputs": [
        {
          "internalType": "string",
          "name": "",
          "type": "string"
        }
      ],
      "stateMutability": "view",
      "type": "function"
    },
    {
      "inputs": [],
      "name": "tld",
      "outputs": [
        {
          "internalType": "string",
          "name": "",
          "type": "string"
        }
      ],
      "stateMutability": "view",
      "type": "function"
    },
    {
      "inputs": [
        {
          "internalType": "uint256",
          "name": "tokenId",
          "type": "uint256"
        }
      ],
      "name": "tokenURI",
      "outputs": [
        {
          "internalType": "string",
          "name": "",
          "type": "string"
        }
      ],
      "stateMutability": "view",
      "type": "function"
    },
    {
      "inputs": [
        {
          "internalType": "address",
          "name": "from",
          "type": "address"
        },
        {
          "internalType": "address",
          "name": "to",
          "type": "address"
        },
        {
          "internalType": "uint256",
          "name": "tokenId",
          "type": "uint256"
        }
      ],
      "name": "transferFrom",
      "outputs": [],
      "stateMutability": "nonpayable",
      "type": "function"
    },
    {
      "inputs": [],
      "name": "withdraw",
      "outputs": [],
      "stateMutability": "nonpayable",
      "type": "function"
    }
  ],
  "bytecode": "0x6080604052604051806108a0016040528061086a81526020016200514a61086a9139600a908051906020019062000038929190620002a8565b506040518060400160405280600d81526020017f3c2f746578743e3c2f7376673e00000000000000000000000000000000000000815250600b908051906020019062000086929190620002a8565b50604051620059de380380620059de8339818101604052810190620000ac9190620004f5565b6040518060400160405280601581526020017f455845204e616d6520536572766963652076332e3300000000000000000000008152506040518060400160405280600381526020017f4558530000000000000000000000000000000000000000000000000000000000815250816000908051906020019062000130929190620002a8565b50806001908051906020019062000149929190620002a8565b50505033600860006101000a81548173ffffffffffffffffffffffffffffffffffffffff021916908373ffffffffffffffffffffffffffffffffffffffff1602179055508060099080519060200190620001a5929190620002a8565b50620001d56040518060600160405280602a8152602001620059b4602a9139620001dc60201b62001ae71760201c565b506200062c565b6200027c81604051602401620001f39190620005a3565b6040516020818303038152906040527f41304fac000000000000000000000000000000000000000000000000000000007bffffffffffffffffffffffffffffffffffffffffffffffffffffffff19166020820180517bffffffffffffffffffffffffffffffffffffffffffffffffffffffff83818316178352505050506200027f60201b60201c565b50565b60008151905060006a636f6e736f6c652e6c6f679050602083016000808483855afa5050505050565b828054620002b690620005f6565b90600052602060002090601f016020900481019282620002da576000855562000326565b82601f10620002f557805160ff191683800117855562000326565b8280016001018555821562000326579182015b828111156200032557825182559160200191906001019062000308565b5b50905062000335919062000339565b5090565b5b80821115620003545760008160009055506001016200033a565b5090565b6000604051905090565b600080fd5b600080fd5b600080fd5b600080fd5b6000601f19601f8301169050919050565b7f4e487b7100000000000000000000000000000000000000000000000000000000600052604160045260246000fd5b620003c18262000376565b810181811067ffffffffffffffff82111715620003e357620003e262000387565b5b80604052505050565b6000620003f862000358565b9050620004068282620003b6565b919050565b600067ffffffffffffffff82111562000429576200042862000387565b5b620004348262000376565b9050602081019050919050565b60005b838110156200046157808201518184015260208101905062000444565b8381111562000471576000848401525b50505050565b60006200048e62000488846200040b565b620003ec565b905082815260208101848484011115620004ad57620004ac62000371565b5b620004ba84828562000441565b509392505050565b600082601f830112620004da57620004d96200036c565b5b8151620004ec84826020860162000477565b91505092915050565b6000602082840312156200050e576200050d62000362565b5b600082015167ffffffffffffffff8111156200052f576200052e62000367565b5b6200053d84828501620004c2565b91505092915050565b600081519050919050565b600082825260208201905092915050565b60006200056f8262000546565b6200057b818562000551565b93506200058d81856020860162000441565b620005988162000376565b840191505092915050565b60006020820190508181036000830152620005bf818462000562565b905092915050565b7f4e487b7100000000000000000000000000000000000000000000000000000000600052602260045260246000fd5b600060028204905060018216806200060f57607f821691505b60208210811415620006265762000625620005c7565b5b50919050565b614b0e806200063c6000396000f3fe60806040526004361061019c5760003560e01c806370a08231116100ec578063c1880a981161008a578063f2c298be11610064578063f2c298be14610624578063f4d59b3a14610640578063fb825e5f1461067d578063fe2c6198146106a85761019c565b8063c1880a9814610581578063c87b56dd146105aa578063e985e9c5146105e75761019c565b806395d89b41116100c657806395d89b41146104c7578063a22cb465146104f2578063b88d4fde1461051b578063bf40fac1146105445761019c565b806370a08231146104345780638da5cb5b146104715780638f32d59b1461049c5761019c565b8063264492351161015957806342842e0e1161013357806342842e0e146103545780634622ab031461037d578063541e771d146103ba5780636352211e146103f75761019c565b806326449235146102d55780632d551432146103125780633ccfd60b1461033d5761019c565b806301ffc9a7146101a157806306fdde03146101de578063081812fc14610209578063095ea7b31461024657806311dd88451461026f57806323b872dd146102ac575b600080fd5b3480156101ad57600080fd5b506101c860048036038101906101c39190612f30565b6106e5565b6040516101d59190612f78565b60405180910390f35b3480156101ea57600080fd5b506101f36107c7565b604051610200919061302c565b60405180910390f35b34801561021557600080fd5b50610230600480360381019061022b9190613084565b610859565b60405161023d91906130f2565b60405180910390f35b34801561025257600080fd5b5061026d60048036038101906102689190613139565b6108de565b005b34801561027b57600080fd5b50610296600480360381019061029191906131de565b6109f6565b6040516102a3919061302c565b60405180910390f35b3480156102b857600080fd5b506102d360048036038101906102ce919061322b565b610aa9565b005b3480156102e157600080fd5b506102fc60048036038101906102f791906133ae565b610b09565b60405161030991906130f2565b60405180910390f35b34801561031e57600080fd5b50610327610b52565b604051610334919061302c565b60405180910390f35b34801561034957600080fd5b50610352610be0565b005b34801561036057600080fd5b5061037b6004803603810190610376919061322b565b610ca6565b005b34801561038957600080fd5b506103a4600480360381019061039f9190613084565b610cc6565b6040516103b1919061302c565b60405180910390f35b3480156103c657600080fd5b506103e160048036038101906103dc91906133ae565b610d66565b6040516103ee919061302c565b60405180910390f35b34801561040357600080fd5b5061041e60048036038101906104199190613084565b610e1c565b60405161042b91906130f2565b60405180910390f35b34801561044057600080fd5b5061045b600480360381019061045691906133f7565b610ece565b6040516104689190613433565b60405180910390f35b34801561047d57600080fd5b50610486610f86565b604051610493919061346f565b60405180910390f35b3480156104a857600080fd5b506104b1610fac565b6040516104be9190612f78565b60405180910390f35b3480156104d357600080fd5b506104dc611004565b6040516104e9919061302c565b60405180910390f35b3480156104fe57600080fd5b50610519600480360381019061051491906134b6565b611096565b005b34801561052757600080fd5b50610542600480360381019061053d9190613597565b6110ac565b005b34801561055057600080fd5b5061056b600480360381019061056691906131de565b61110e565b60405161057891906130f2565b60405180910390f35b34801561058d57600080fd5b506105a860048036038101906105a3919061361a565b611159565b005b3480156105b657600080fd5b506105d160048036038101906105cc9190613084565b611234565b6040516105de919061302c565b60405180910390f35b3480156105f357600080fd5b5061060e6004803603810190610609919061369b565b611386565b60405161061b9190612f78565b60405180910390f35b61063e600480360381019061063991906131de565b61141a565b005b34801561064c57600080fd5b50610667600480360381019061066291906131de565b611857565b6040516106749190612f78565b60405180910390f35b34801561068957600080fd5b5061069261190b565b60405161069f91906137e7565b60405180910390f35b3480156106b457600080fd5b506106cf60048036038101906106ca91906131de565b611a51565b6040516106dc9190613433565b60405180910390f35b60007f80ac58cd000000000000000000000000000000000000000000000000000000007bffffffffffffffffffffffffffffffffffffffffffffffffffffffff1916827bffffffffffffffffffffffffffffffffffffffffffffffffffffffff191614806107b057507f5b5e139f000000000000000000000000000000000000000000000000000000007bffffffffffffffffffffffffffffffffffffffffffffffffffffffff1916827bffffffffffffffffffffffffffffffffffffffffffffffffffffffff1916145b806107c057506107bf82611b80565b5b9050919050565b6060600080546107d690613838565b80601f016020809104026020016040519081016040528092919081815260200182805461080290613838565b801561084f5780601f106108245761010080835404028352916020019161084f565b820191906000526020600020905b81548152906001019060200180831161083257829003601f168201915b5050505050905090565b600061086482611bea565b6108a3576040517f08c379a000000000000000000000000000000000000000000000000000000000815260040161089a906138dc565b60405180910390fd5b6004600083815260200190815260200160002060009054906101000a900473ffffffffffffffffffffffffffffffffffffffff169050919050565b60006108e982610e1c565b90508073ffffffffffffffffffffffffffffffffffffffff168373ffffffffffffffffffffffffffffffffffffffff16141561095a576040517f08c379a00000000000000000000000000000000000000000000000000000000081526004016109519061396e565b60405180910390fd5b8073ffffffffffffffffffffffffffffffffffffffff16610979611c56565b73ffffffffffffffffffffffffffffffffffffffff1614806109a857506109a7816109a2611c56565b611386565b5b6109e7576040517f08c379a00000000000000000000000000000000000000000000000000000000081526004016109de90613a00565b60405180910390fd5b6109f18383611c5e565b505050565b6060600d8383604051610a0a929190613a50565b90815260200160405180910390208054610a2390613838565b80601f0160208091040260200160405190810160405280929190818152602001828054610a4f90613838565b8015610a9c5780601f10610a7157610100808354040283529160200191610a9c565b820191906000526020600020905b815481529060010190602001808311610a7f57829003601f168201915b5050505050905092915050565b610aba610ab4611c56565b82611d17565b610af9576040517f08c379a0000000000000000000000000000000000000000000000000000000008152600401610af090613adb565b60405180910390fd5b610b04838383611df5565b505050565b600c818051602081018201805184825260208301602085012081835280955050505050506000915054906101000a900473ffffffffffffffffffffffffffffffffffffffff1681565b60098054610b5f90613838565b80601f0160208091040260200160405190810160405280929190818152602001828054610b8b90613838565b8015610bd85780601f10610bad57610100808354040283529160200191610bd8565b820191906000526020600020905b815481529060010190602001808311610bbb57829003601f168201915b505050505081565b610be8610fac565b610bf157600080fd5b600047905060003373ffffffffffffffffffffffffffffffffffffffff1682604051610c1c90613b2c565b60006040518083038185875af1925050503d8060008114610c59576040519150601f19603f3d011682016040523d82523d6000602084013e610c5e565b606091505b5050905080610ca2576040517f08c379a0000000000000000000000000000000000000000000000000000000008152600401610c9990613b8d565b60405180910390fd5b5050565b610cc1838383604051806020016040528060008152506110ac565b505050565b600e6020528060005260406000206000915090508054610ce590613838565b80601f0160208091040260200160405190810160405280929190818152602001828054610d1190613838565b8015610d5e5780601f10610d3357610100808354040283529160200191610d5e565b820191906000526020600020905b815481529060010190602001808311610d4157829003601f168201915b505050505081565b600d818051602081018201805184825260208301602085012081835280955050505050506000915090508054610d9b90613838565b80601f0160208091040260200160405190810160405280929190818152602001828054610dc790613838565b8015610e145780601f10610de957610100808354040283529160200191610e14565b820191906000526020600020905b815481529060010190602001808311610df757829003601f168201915b505050505081565b6000806002600084815260200190815260200160002060009054906101000a900473ffffffffffffffffffffffffffffffffffffffff169050600073ffffffffffffffffffffffffffffffffffffffff168173ffffffffffffffffffffffffffffffffffffffff161415610ec5576040517f08c379a0000000000000000000000000000000000000000000000000000000008152600401610ebc90613c1f565b60405180910390fd5b80915050919050565b60008073ffffffffffffffffffffffffffffffffffffffff168273ffffffffffffffffffffffffffffffffffffffff161415610f3f576040517f08c379a0000000000000000000000000000000000000000000000000000000008152600401610f3690613cb1565b60405180910390fd5b600360008373ffffffffffffffffffffffffffffffffffffffff1673ffffffffffffffffffffffffffffffffffffffff168152602001908152602001600020549050919050565b600860009054906101000a900473ffffffffffffffffffffffffffffffffffffffff1681565b6000600860009054906101000a900473ffffffffffffffffffffffffffffffffffffffff1673ffffffffffffffffffffffffffffffffffffffff163373ffffffffffffffffffffffffffffffffffffffff1614905090565b60606001805461101390613838565b80601f016020809104026020016040519081016040528092919081815260200182805461103f90613838565b801561108c5780601f106110615761010080835404028352916020019161108c565b820191906000526020600020905b81548152906001019060200180831161106f57829003601f168201915b5050505050905090565b6110a86110a1611c56565b838361205c565b5050565b6110bd6110b7611c56565b83611d17565b6110fc576040517f08c379a00000000000000000000000000000000000000000000000000000000081526004016110f390613adb565b60405180910390fd5b611108848484846121c9565b50505050565b6000600c8383604051611122929190613a50565b908152602001604051809103902060009054906101000a900473ffffffffffffffffffffffffffffffffffffffff16905092915050565b600c848460405161116b929190613a50565b908152602001604051809103902060009054906101000a900473ffffffffffffffffffffffffffffffffffffffff1673ffffffffffffffffffffffffffffffffffffffff163373ffffffffffffffffffffffffffffffffffffffff16146111fe576040517f82b4290000000000000000000000000000000000000000000000000000000000815260040160405180910390fd5b8181600d8686604051611212929190613a50565b9081526020016040518091039020919061122d929190612d9b565b5050505050565b606061123f82611bea565b61127e576040517f08c379a000000000000000000000000000000000000000000000000000000000815260040161127590613d43565b60405180910390fd5b600060066000848152602001908152602001600020805461129e90613838565b80601f01602080910402602001604051908101604052809291908181526020018280546112ca90613838565b80156113175780601f106112ec57610100808354040283529160200191611317565b820191906000526020600020905b8154815290600101906020018083116112fa57829003601f168201915b505050505090506000611328612225565b905060008151141561133e578192505050611381565b60008251111561137357808260405160200161135b929190613d94565b60405160208183030381529060405292505050611381565b61137c8461223c565b925050505b919050565b6000600560008473ffffffffffffffffffffffffffffffffffffffff1673ffffffffffffffffffffffffffffffffffffffff16815260200190815260200160002060008373ffffffffffffffffffffffffffffffffffffffff1673ffffffffffffffffffffffffffffffffffffffff16815260200190815260200160002060009054906101000a900460ff16905092915050565b600073ffffffffffffffffffffffffffffffffffffffff16600c8383604051611444929190613a50565b908152602001604051809103902060009054906101000a900473ffffffffffffffffffffffffffffffffffffffff1673ffffffffffffffffffffffffffffffffffffffff16146114c9576040517f08c379a00000000000000000000000000000000000000000000000000000000081526004016114c090613e04565b60405180910390fd5b60006114d58383611a51565b90508034101561151a576040517f08c379a000000000000000000000000000000000000000000000000000000000815260040161151190613e70565b60405180910390fd5b60008383600960405160200161153293929190613f70565b60405160208183030381529060405290506000600a82600b60405160200161155c93929190613fa1565b6040516020818303038152906040529050600061157960076122e3565b905060006115ca87878080601f016020809104026020016040519081016040528093929190818152602001838380828437600081840152601f19601f820116905080830192505050505050506122f1565b905060006115d7826124a6565b90506116cb604051806060016040528060318152602001614a686031913989898080601f016020809104026020016040519081016040528093929190818152602001838380828437600081840152601f19601f820116905080830192505050505050506009805461164790613838565b80601f016020809104026020016040519081016040528092919081815260200182805461167390613838565b80156116c05780601f10611695576101008083540402835291602001916116c0565b820191906000526020600020905b8154815290600101906020018083116116a357829003601f168201915b505050505086612607565b6000611701866116da876126a9565b846040516020016116ed9392919061414e565b6040516020818303038152906040526126a9565b905060008160405160200161171691906141f7565b60405160208183030381529060405290506117313386612841565b61173b858261285f565b33600c8b8b60405161174e929190613a50565b908152602001604051809103902060006101000a81548173ffffffffffffffffffffffffffffffffffffffff021916908373ffffffffffffffffffffffffffffffffffffffff1602179055508989600e600088815260200190815260200160002091906117bc929190612d9b565b506117c760076128d3565b61184b6040518060400160405280601f81526020017f257320686173207265676974657265642074686520646f6d61696e3a20257300815250338c8c8080601f016020809104026020016040519081016040528093929190818152602001838380828437600081840152601f19601f820116905080830192505050505050506128e9565b50505050505050505050565b600060036118a884848080601f016020809104026020016040519081016040528093929190818152602001838380828437600081840152601f19601f820116905080830192505050505050506122f1565b101580156119035750600a61190084848080601f016020809104026020016040519081016040528093929190818152602001838380828437600081840152601f19601f820116905080830192505050505050506122f1565b11155b905092915050565b6060600061191960076122e3565b67ffffffffffffffff81111561193257611931613283565b5b60405190808252806020026020018201604052801561196557816020015b60608152602001906001900390816119505790505b50905060005b61197560076122e3565b811015611a4957600e6000828152602001908152602001600020805461199a90613838565b80601f01602080910402602001604051908101604052809291908181526020018280546119c690613838565b8015611a135780601f106119e857610100808354040283529160200191611a13565b820191906000526020600020905b8154815290600101906020018083116119f657829003601f168201915b5050505050828281518110611a2b57611a2a614219565b5b60200260200101819052508080611a4190614277565b91505061196b565b508091505090565b600080611aa184848080601f016020809104026020016040519081016040528093929190818152602001838380828437600081840152601f19601f820116905080830192505050505050506122f1565b90506003811415611abc5766b1a2bc2ec50000915050611ae1565b6004811415611ad557666a94d74f430000915050611ae1565b662386f26fc100009150505b92915050565b611b7d81604051602401611afb919061302c565b6040516020818303038152906040527f41304fac000000000000000000000000000000000000000000000000000000007bffffffffffffffffffffffffffffffffffffffffffffffffffffffff19166020820180517bffffffffffffffffffffffffffffffffffffffffffffffffffffffff8381831617835250505050612988565b50565b60007f01ffc9a7000000000000000000000000000000000000000000000000000000007bffffffffffffffffffffffffffffffffffffffffffffffffffffffff1916827bffffffffffffffffffffffffffffffffffffffffffffffffffffffff1916149050919050565b60008073ffffffffffffffffffffffffffffffffffffffff166002600084815260200190815260200160002060009054906101000a900473ffffffffffffffffffffffffffffffffffffffff1673ffffffffffffffffffffffffffffffffffffffff1614159050919050565b600033905090565b816004600083815260200190815260200160002060006101000a81548173ffffffffffffffffffffffffffffffffffffffff021916908373ffffffffffffffffffffffffffffffffffffffff160217905550808273ffffffffffffffffffffffffffffffffffffffff16611cd183610e1c565b73ffffffffffffffffffffffffffffffffffffffff167f8c5be1e5ebec7d5bd14f71427d1e84f3dd0314c0f7b2291e5b200ac8c7c3b92560405160405180910390a45050565b6000611d2282611bea565b611d61576040517f08c379a0000000000000000000000000000000000000000000000000000000008152600401611d5890614332565b60405180910390fd5b6000611d6c83610e1c565b90508073ffffffffffffffffffffffffffffffffffffffff168473ffffffffffffffffffffffffffffffffffffffff161480611ddb57508373ffffffffffffffffffffffffffffffffffffffff16611dc384610859565b73ffffffffffffffffffffffffffffffffffffffff16145b80611dec5750611deb8185611386565b5b91505092915050565b8273ffffffffffffffffffffffffffffffffffffffff16611e1582610e1c565b73ffffffffffffffffffffffffffffffffffffffff1614611e6b576040517f08c379a0000000000000000000000000000000000000000000000000000000008152600401611e62906143c4565b60405180910390fd5b600073ffffffffffffffffffffffffffffffffffffffff168273ffffffffffffffffffffffffffffffffffffffff161415611edb576040517f08c379a0000000000000000000000000000000000000000000000000000000008152600401611ed290614456565b60405180910390fd5b611ee68383836129b1565b611ef1600082611c5e565b6001600360008573ffffffffffffffffffffffffffffffffffffffff1673ffffffffffffffffffffffffffffffffffffffff1681526020019081526020016000206000828254611f419190614476565b925050819055506001600360008473ffffffffffffffffffffffffffffffffffffffff1673ffffffffffffffffffffffffffffffffffffffff1681526020019081526020016000206000828254611f9891906144aa565b92505081905550816002600083815260200190815260200160002060006101000a81548173ffffffffffffffffffffffffffffffffffffffff021916908373ffffffffffffffffffffffffffffffffffffffff160217905550808273ffffffffffffffffffffffffffffffffffffffff168473ffffffffffffffffffffffffffffffffffffffff167fddf252ad1be2c89b69c2b068fc378daa952ba7f163c4a11628f55a4df523b3ef60405160405180910390a46120578383836129b6565b505050565b8173ffffffffffffffffffffffffffffffffffffffff168373ffffffffffffffffffffffffffffffffffffffff1614156120cb576040517f08c379a00000000000000000000000000000000000000000000000000000000081526004016120c29061454c565b60405180910390fd5b80600560008573ffffffffffffffffffffffffffffffffffffffff1673ffffffffffffffffffffffffffffffffffffffff16815260200190815260200160002060008473ffffffffffffffffffffffffffffffffffffffff1673ffffffffffffffffffffffffffffffffffffffff16815260200190815260200160002060006101000a81548160ff0219169083151502179055508173ffffffffffffffffffffffffffffffffffffffff168373ffffffffffffffffffffffffffffffffffffffff167f17307eab39ab6107e8899845ad3d59bd9653f200f220920489ca2b5937696c31836040516121bc9190612f78565b60405180910390a3505050565b6121d4848484611df5565b6121e0848484846129bb565b61221f576040517f08c379a0000000000000000000000000000000000000000000000000000000008152600401612216906145de565b60405180910390fd5b50505050565b606060405180602001604052806000815250905090565b606061224782611bea565b612286576040517f08c379a000000000000000000000000000000000000000000000000000000000815260040161227d90614670565b60405180910390fd5b6000612290612225565b905060008151116122b057604051806020016040528060008152506122db565b806122ba846124a6565b6040516020016122cb929190613d94565b6040516020818303038152906040525b915050919050565b600081600001549050919050565b60008060008084519050600092505b8082101561249b57600085838151811061231d5761231c614219565b5b602001015160f81c60f81b9050608060f81b817effffffffffffffffffffffffffffffffffffffffffffffffffffffffffffff1916101561236c5760018361236591906144aa565b9250612487565b60e060f81b817effffffffffffffffffffffffffffffffffffffffffffffffffffffffffffff191610156123ae576002836123a791906144aa565b9250612486565b60f060f81b817effffffffffffffffffffffffffffffffffffffffffffffffffffffffffffff191610156123f0576003836123e991906144aa565b9250612485565b60f8801b817effffffffffffffffffffffffffffffffffffffffffffffffffffffffffffff191610156124315760048361242a91906144aa565b9250612484565b60fc60f81b817effffffffffffffffffffffffffffffffffffffffffffffffffffffffffffff191610156124735760058361246c91906144aa565b9250612483565b60068361248091906144aa565b92505b5b5b5b5b50828061249390614277565b935050612300565b829350505050919050565b606060008214156124ee576040518060400160405280600181526020017f30000000000000000000000000000000000000000000000000000000000000008152509050612602565b600082905060005b6000821461252057808061250990614277565b915050600a8261251991906146bf565b91506124f6565b60008167ffffffffffffffff81111561253c5761253b613283565b5b6040519080825280601f01601f19166020018201604052801561256e5781602001600182028036833780820191505090505b5090505b600085146125fb576001826125879190614476565b9150600a8561259691906146f0565b60306125a291906144aa565b60f81b8183815181106125b8576125b7614219565b5b60200101907effffffffffffffffffffffffffffffffffffffffffffffffffffffffffffff1916908160001a905350600a856125f491906146bf565b9450612572565b8093505050505b919050565b6126a3848484846040516024016126219493929190614721565b6040516020818303038152906040527f9fd009f5000000000000000000000000000000000000000000000000000000007bffffffffffffffffffffffffffffffffffffffffffffffffffffffff19166020820180517bffffffffffffffffffffffffffffffffffffffffffffffffffffffff8381831617835250505050612988565b50505050565b606060008251905060008114156126d2576040518060200160405280600081525091505061283c565b600060036002836126e391906144aa565b6126ed91906146bf565b60046126f9919061477b565b9050600060208261270a91906144aa565b67ffffffffffffffff81111561272357612722613283565b5b6040519080825280601f01601f1916602001820160405280156127555781602001600182028036833780820191505090505b5090506000604051806060016040528060408152602001614a99604091399050600181016020830160005b868110156127f95760038101905062ffffff818a015116603f8160121c168401518060081b905060ff603f83600c1c1686015116810190508060081b905060ff603f8360061c1686015116810190508060081b905060ff603f831686015116810190508060e01b90508084526004840193505050612780565b50600386066001811461281357600281146128235761282e565b613d3d60f01b600283035261282e565b603d60f81b60018303525b508484525050819450505050505b919050565b61285b828260405180602001604052806000815250612b43565b5050565b61286882611bea565b6128a7576040517f08c379a000000000000000000000000000000000000000000000000000000000815260040161289e90614847565b60405180910390fd5b806006600084815260200190815260200160002090805190602001906128ce929190612e21565b505050565b6001816000016000828254019250508190555050565b61298383838360405160240161290193929190614867565b6040516020818303038152906040527fe0e9ad4f000000000000000000000000000000000000000000000000000000007bffffffffffffffffffffffffffffffffffffffffffffffffffffffff19166020820180517bffffffffffffffffffffffffffffffffffffffffffffffffffffffff8381831617835250505050612988565b505050565b60008151905060006a636f6e736f6c652e6c6f679050602083016000808483855afa5050505050565b505050565b505050565b60006129dc8473ffffffffffffffffffffffffffffffffffffffff16612b9e565b15612b36578373ffffffffffffffffffffffffffffffffffffffff1663150b7a02612a05611c56565b8786866040518563ffffffff1660e01b8152600401612a279493929190614901565b6020604051808303816000875af1925050508015612a6357506040513d601f19601f82011682018060405250810190612a609190614962565b60015b612ae6573d8060008114612a93576040519150601f19603f3d011682016040523d82523d6000602084013e612a98565b606091505b50600081511415612ade576040517f08c379a0000000000000000000000000000000000000000000000000000000008152600401612ad5906145de565b60405180910390fd5b805181602001fd5b63150b7a0260e01b7bffffffffffffffffffffffffffffffffffffffffffffffffffffffff1916817bffffffffffffffffffffffffffffffffffffffffffffffffffffffff191614915050612b3b565b600190505b949350505050565b612b4d8383612bc1565b612b5a60008484846129bb565b612b99576040517f08c379a0000000000000000000000000000000000000000000000000000000008152600401612b90906145de565b60405180910390fd5b505050565b6000808273ffffffffffffffffffffffffffffffffffffffff163b119050919050565b600073ffffffffffffffffffffffffffffffffffffffff168273ffffffffffffffffffffffffffffffffffffffff161415612c31576040517f08c379a0000000000000000000000000000000000000000000000000000000008152600401612c28906149db565b60405180910390fd5b612c3a81611bea565b15612c7a576040517f08c379a0000000000000000000000000000000000000000000000000000000008152600401612c7190614a47565b60405180910390fd5b612c86600083836129b1565b6001600360008473ffffffffffffffffffffffffffffffffffffffff1673ffffffffffffffffffffffffffffffffffffffff1681526020019081526020016000206000828254612cd691906144aa565b92505081905550816002600083815260200190815260200160002060006101000a81548173ffffffffffffffffffffffffffffffffffffffff021916908373ffffffffffffffffffffffffffffffffffffffff160217905550808273ffffffffffffffffffffffffffffffffffffffff16600073ffffffffffffffffffffffffffffffffffffffff167fddf252ad1be2c89b69c2b068fc378daa952ba7f163c4a11628f55a4df523b3ef60405160405180910390a4612d97600083836129b6565b5050565b828054612da790613838565b90600052602060002090601f016020900481019282612dc95760008555612e10565b82601f10612de257803560ff1916838001178555612e10565b82800160010185558215612e10579182015b82811115612e0f578235825591602001919060010190612df4565b5b509050612e1d9190612ea7565b5090565b828054612e2d90613838565b90600052602060002090601f016020900481019282612e4f5760008555612e96565b82601f10612e6857805160ff1916838001178555612e96565b82800160010185558215612e96579182015b82811115612e95578251825591602001919060010190612e7a565b5b509050612ea39190612ea7565b5090565b5b80821115612ec0576000816000905550600101612ea8565b5090565b6000604051905090565b600080fd5b600080fd5b60007fffffffff0000000000000000000000000000000000000000000000000000000082169050919050565b612f0d81612ed8565b8114612f1857600080fd5b50565b600081359050612f2a81612f04565b92915050565b600060208284031215612f4657612f45612ece565b5b6000612f5484828501612f1b565b91505092915050565b60008115159050919050565b612f7281612f5d565b82525050565b6000602082019050612f8d6000830184612f69565b92915050565b600081519050919050565b600082825260208201905092915050565b60005b83811015612fcd578082015181840152602081019050612fb2565b83811115612fdc576000848401525b50505050565b6000601f19601f8301169050919050565b6000612ffe82612f93565b6130088185612f9e565b9350613018818560208601612faf565b61302181612fe2565b840191505092915050565b600060208201905081810360008301526130468184612ff3565b905092915050565b6000819050919050565b6130618161304e565b811461306c57600080fd5b50565b60008135905061307e81613058565b92915050565b60006020828403121561309a57613099612ece565b5b60006130a88482850161306f565b91505092915050565b600073ffffffffffffffffffffffffffffffffffffffff82169050919050565b60006130dc826130b1565b9050919050565b6130ec816130d1565b82525050565b600060208201905061310760008301846130e3565b92915050565b613116816130d1565b811461312157600080fd5b50565b6000813590506131338161310d565b92915050565b600080604083850312156131505761314f612ece565b5b600061315e85828601613124565b925050602061316f8582860161306f565b9150509250929050565b600080fd5b600080fd5b600080fd5b60008083601f84011261319e5761319d613179565b5b8235905067ffffffffffffffff8111156131bb576131ba61317e565b5b6020830191508360018202830111156131d7576131d6613183565b5b9250929050565b600080602083850312156131f5576131f4612ece565b5b600083013567ffffffffffffffff81111561321357613212612ed3565b5b61321f85828601613188565b92509250509250929050565b60008060006060848603121561324457613243612ece565b5b600061325286828701613124565b935050602061326386828701613124565b92505060406132748682870161306f565b9150509250925092565b600080fd5b7f4e487b7100000000000000000000000000000000000000000000000000000000600052604160045260246000fd5b6132bb82612fe2565b810181811067ffffffffffffffff821117156132da576132d9613283565b5b80604052505050565b60006132ed612ec4565b90506132f982826132b2565b919050565b600067ffffffffffffffff82111561331957613318613283565b5b61332282612fe2565b9050602081019050919050565b82818337600083830152505050565b600061335161334c846132fe565b6132e3565b90508281526020810184848401111561336d5761336c61327e565b5b61337884828561332f565b509392505050565b600082601f83011261339557613394613179565b5b81356133a584826020860161333e565b91505092915050565b6000602082840312156133c4576133c3612ece565b5b600082013567ffffffffffffffff8111156133e2576133e1612ed3565b5b6133ee84828501613380565b91505092915050565b60006020828403121561340d5761340c612ece565b5b600061341b84828501613124565b91505092915050565b61342d8161304e565b82525050565b60006020820190506134486000830184613424565b92915050565b6000613459826130b1565b9050919050565b6134698161344e565b82525050565b60006020820190506134846000830184613460565b92915050565b61349381612f5d565b811461349e57600080fd5b50565b6000813590506134b08161348a565b92915050565b600080604083850312156134cd576134cc612ece565b5b60006134db85828601613124565b92505060206134ec858286016134a1565b9150509250929050565b600067ffffffffffffffff82111561351157613510613283565b5b61351a82612fe2565b9050602081019050919050565b600061353a613535846134f6565b6132e3565b9050828152602081018484840111156135565761355561327e565b5b61356184828561332f565b509392505050565b600082601f83011261357e5761357d613179565b5b813561358e848260208601613527565b91505092915050565b600080600080608085870312156135b1576135b0612ece565b5b60006135bf87828801613124565b94505060206135d087828801613124565b93505060406135e18782880161306f565b925050606085013567ffffffffffffffff81111561360257613601612ed3565b5b61360e87828801613569565b91505092959194509250565b6000806000806040858703121561363457613633612ece565b5b600085013567ffffffffffffffff81111561365257613651612ed3565b5b61365e87828801613188565b9450945050602085013567ffffffffffffffff81111561368157613680612ed3565b5b61368d87828801613188565b925092505092959194509250565b600080604083850312156136b2576136b1612ece565b5b60006136c085828601613124565b92505060206136d185828601613124565b9150509250929050565b600081519050919050565b600082825260208201905092915050565b6000819050602082019050919050565b600082825260208201905092915050565b600061372382612f93565b61372d8185613707565b935061373d818560208601612faf565b61374681612fe2565b840191505092915050565b600061375d8383613718565b905092915050565b6000602082019050919050565b600061377d826136db565b61378781856136e6565b935083602082028501613799856136f7565b8060005b858110156137d557848403895281516137b68582613751565b94506137c183613765565b925060208a0199505060018101905061379d565b50829750879550505050505092915050565b600060208201905081810360008301526138018184613772565b905092915050565b7f4e487b7100000000000000000000000000000000000000000000000000000000600052602260045260246000fd5b6000600282049050600182168061385057607f821691505b6020821081141561386457613863613809565b5b50919050565b7f4552433732313a20617070726f76656420717565727920666f72206e6f6e657860008201527f697374656e7420746f6b656e0000000000000000000000000000000000000000602082015250565b60006138c6602c83612f9e565b91506138d18261386a565b604082019050919050565b600060208201905081810360008301526138f5816138b9565b9050919050565b7f4552433732313a20617070726f76616c20746f2063757272656e74206f776e6560008201527f7200000000000000000000000000000000000000000000000000000000000000602082015250565b6000613958602183612f9e565b9150613963826138fc565b604082019050919050565b600060208201905081810360008301526139878161394b565b9050919050565b7f4552433732313a20617070726f76652063616c6c6572206973206e6f74206f7760008201527f6e6572206e6f7220617070726f76656420666f7220616c6c0000000000000000602082015250565b60006139ea603883612f9e565b91506139f58261398e565b604082019050919050565b60006020820190508181036000830152613a19816139dd565b9050919050565b600081905092915050565b6000613a378385613a20565b9350613a4483858461332f565b82840190509392505050565b6000613a5d828486613a2b565b91508190509392505050565b7f4552433732313a207472616e736665722063616c6c6572206973206e6f74206f60008201527f776e6572206e6f7220617070726f766564000000000000000000000000000000602082015250565b6000613ac5603183612f9e565b9150613ad082613a69565b604082019050919050565b60006020820190508181036000830152613af481613ab8565b9050919050565b600081905092915050565b50565b6000613b16600083613afb565b9150613b2182613b06565b600082019050919050565b6000613b3782613b09565b9150819050919050565b7f4661696c656420746f20636f6d706c657465207472616e73616374696f6e0000600082015250565b6000613b77601e83612f9e565b9150613b8282613b41565b602082019050919050565b60006020820190508181036000830152613ba681613b6a565b9050919050565b7f4552433732313a206f776e657220717565727920666f72206e6f6e657869737460008201527f656e7420746f6b656e0000000000000000000000000000000000000000000000602082015250565b6000613c09602983612f9e565b9150613c1482613bad565b604082019050919050565b60006020820190508181036000830152613c3881613bfc565b9050919050565b7f4552433732313a2062616c616e636520717565727920666f7220746865207a6560008201527f726f206164647265737300000000000000000000000000000000000000000000602082015250565b6000613c9b602a83612f9e565b9150613ca682613c3f565b604082019050919050565b60006020820190508181036000830152613cca81613c8e565b9050919050565b7f45524337323155524953746f726167653a2055524920717565727920666f722060008201527f6e6f6e6578697374656e7420746f6b656e000000000000000000000000000000602082015250565b6000613d2d603183612f9e565b9150613d3882613cd1565b604082019050919050565b60006020820190508181036000830152613d5c81613d20565b9050919050565b6000613d6e82612f93565b613d788185613a20565b9350613d88818560208601612faf565b80840191505092915050565b6000613da08285613d63565b9150613dac8284613d63565b91508190509392505050565b7f446f6d61696e20616c7265616479207265676973746572656400000000000000600082015250565b6000613dee601983612f9e565b9150613df982613db8565b602082019050919050565b60006020820190508181036000830152613e1d81613de1565b9050919050565b7f4e6f7420656e6f756768204d6174696320706169656400000000000000000000600082015250565b6000613e5a601683612f9e565b9150613e6582613e24565b602082019050919050565b60006020820190508181036000830152613e8981613e4d565b9050919050565b7f2e00000000000000000000000000000000000000000000000000000000000000600082015250565b6000613ec6600183613a20565b9150613ed182613e90565b600182019050919050565b60008190508160005260206000209050919050565b60008154613efe81613838565b613f088186613a20565b94506001821660008114613f235760018114613f3457613f67565b60ff19831686528186019350613f67565b613f3d85613edc565b60005b83811015613f5f57815481890152600182019150602081019050613f40565b838801955050505b50505092915050565b6000613f7d828587613a2b565b9150613f8882613eb9565b9150613f948284613ef1565b9150819050949350505050565b6000613fad8286613ef1565b9150613fb98285613d63565b9150613fc58284613ef1565b9150819050949350505050565b7f7b226e616d65223a202200000000000000000000000000000000000000000000600082015250565b6000614008600a83613a20565b915061401382613fd2565b600a82019050919050565b7f222c20226465736372697074696f6e223a20224120646f6d61696e206f6e207460008201527f686520657865206e616d652073657276696365222c2022696d616765223a202260208201527f646174613a696d6167652f7376672b786d6c3b6261736536342c000000000000604082015250565b60006140a0605a83613a20565b91506140ab8261401e565b605a82019050919050565b7f222c226c656e677468223a220000000000000000000000000000000000000000600082015250565b60006140ec600c83613a20565b91506140f7826140b6565b600c82019050919050565b7f227d000000000000000000000000000000000000000000000000000000000000600082015250565b6000614138600283613a20565b915061414382614102565b600282019050919050565b600061415982613ffb565b91506141658286613d63565b915061417082614093565b915061417c8285613d63565b9150614187826140df565b91506141938284613d63565b915061419e8261412b565b9150819050949350505050565b7f646174613a6170706c69636174696f6e2f6a736f6e3b6261736536342c000000600082015250565b60006141e1601d83613a20565b91506141ec826141ab565b601d82019050919050565b6000614202826141d4565b915061420e8284613d63565b915081905092915050565b7f4e487b7100000000000000000000000000000000000000000000000000000000600052603260045260246000fd5b7f4e487b7100000000000000000000000000000000000000000000000000000000600052601160045260246000fd5b60006142828261304e565b91507fffffffffffffffffffffffffffffffffffffffffffffffffffffffffffffffff8214156142b5576142b4614248565b5b600182019050919050565b7f4552433732313a206f70657261746f7220717565727920666f72206e6f6e657860008201527f697374656e7420746f6b656e0000000000000000000000000000000000000000602082015250565b600061431c602c83612f9e565b9150614327826142c0565b604082019050919050565b6000602082019050818103600083015261434b8161430f565b9050919050565b7f4552433732313a207472616e736665722066726f6d20696e636f72726563742060008201527f6f776e6572000000000000000000000000000000000000000000000000000000602082015250565b60006143ae602583612f9e565b91506143b982614352565b604082019050919050565b600060208201905081810360008301526143dd816143a1565b9050919050565b7f4552433732313a207472616e7366657220746f20746865207a65726f2061646460008201527f7265737300000000000000000000000000000000000000000000000000000000602082015250565b6000614440602483612f9e565b915061444b826143e4565b604082019050919050565b6000602082019050818103600083015261446f81614433565b9050919050565b60006144818261304e565b915061448c8361304e565b92508282101561449f5761449e614248565b5b828203905092915050565b60006144b58261304e565b91506144c08361304e565b9250827fffffffffffffffffffffffffffffffffffffffffffffffffffffffffffffffff038211156144f5576144f4614248565b5b828201905092915050565b7f4552433732313a20617070726f766520746f2063616c6c657200000000000000600082015250565b6000614536601983612f9e565b915061454182614500565b602082019050919050565b6000602082019050818103600083015261456581614529565b9050919050565b7f4552433732313a207472616e7366657220746f206e6f6e20455243373231526560008201527f63656976657220696d706c656d656e7465720000000000000000000000000000602082015250565b60006145c8603283612f9e565b91506145d38261456c565b604082019050919050565b600060208201905081810360008301526145f7816145bb565b9050919050565b7f4552433732314d657461646174613a2055524920717565727920666f72206e6f60008201527f6e6578697374656e7420746f6b656e0000000000000000000000000000000000602082015250565b600061465a602f83612f9e565b9150614665826145fe565b604082019050919050565b600060208201905081810360008301526146898161464d565b9050919050565b7f4e487b7100000000000000000000000000000000000000000000000000000000600052601260045260246000fd5b60006146ca8261304e565b91506146d58361304e565b9250826146e5576146e4614690565b5b828204905092915050565b60006146fb8261304e565b91506147068361304e565b92508261471657614715614690565b5b828206905092915050565b6000608082019050818103600083015261473b8187612ff3565b9050818103602083015261474f8186612ff3565b905081810360408301526147638185612ff3565b90506147726060830184613424565b95945050505050565b60006147868261304e565b91506147918361304e565b9250817fffffffffffffffffffffffffffffffffffffffffffffffffffffffffffffffff04831182151516156147ca576147c9614248565b5b828202905092915050565b7f45524337323155524953746f726167653a2055524920736574206f66206e6f6e60008201527f6578697374656e7420746f6b656e000000000000000000000000000000000000602082015250565b6000614831602e83612f9e565b915061483c826147d5565b604082019050919050565b6000602082019050818103600083015261486081614824565b9050919050565b600060608201905081810360008301526148818186612ff3565b905061489060208301856130e3565b81810360408301526148a28184612ff3565b9050949350505050565b600081519050919050565b600082825260208201905092915050565b60006148d3826148ac565b6148dd81856148b7565b93506148ed818560208601612faf565b6148f681612fe2565b840191505092915050565b600060808201905061491660008301876130e3565b61492360208301866130e3565b6149306040830185613424565b818103606083015261494281846148c8565b905095945050505050565b60008151905061495c81612f04565b92915050565b60006020828403121561497857614977612ece565b5b60006149868482850161494d565b91505092915050565b7f4552433732313a206d696e7420746f20746865207a65726f2061646472657373600082015250565b60006149c5602083612f9e565b91506149d08261498f565b602082019050919050565b600060208201905081810360008301526149f4816149b8565b9050919050565b7f4552433732313a20746f6b656e20616c7265616479206d696e74656400000000600082015250565b6000614a31601c83612f9e565b9150614a3c826149fb565b602082019050919050565b60006020820190508181036000830152614a6081614a24565b905091905056fe5265676973746572696e672025732e2573206f6e2074686520636f6e7472616374207769746820746f6b656e49442025644142434445464748494a4b4c4d4e4f505152535455565758595a6162636465666768696a6b6c6d6e6f707172737475767778797a303132333435363738392b2fa2646970667358221220ac7f1b4a7ccf7384ce4dfc47011b766e6c67e80996a4d2a6a919a3cea34d87ce64736f6c634300080a00333c73766720786d6c6e733d22687474703a2f2f7777772e77332e6f72672f323030302f737667222077696474683d2232373022206865696768743d22323730222066696c6c3d226e6f6e65223e3c706174682066696c6c3d2275726c282342292220643d224d302030683237307632373048307a222f3e3c646566733e3c66696c7465722069643d22412220636f6c6f722d696e746572706f6c6174696f6e2d66696c746572733d2273524742222066696c746572556e6974733d227573657253706163654f6e55736522206865696768743d22323730222077696474683d22323730223e3c666544726f70536861646f772064783d2230222064793d22312220737464446576696174696f6e3d22322220666c6f6f642d6f7061636974793d222e323235222077696474683d223230302522206865696768743d2232303025222f3e3c2f66696c7465723e3c2f646566733e3c7061746820643d224d37322e3836332034322e393439632d2e3636382d2e3338372d312e3432362d2e35392d322e3139372d2e3539732d312e3532392e3230342d322e3139372e35396c2d31302e30383120362e3033322d362e383520332e3933342d31302e30383120362e303332632d2e3636382e3338372d312e3432362e35392d322e3139372e3539732d312e3532392d2e3230342d322e3139372d2e35396c2d382e3031332d342e37323161342e353220342e35322030203020312d312e3538392d312e363136632d2e3338342d2e3636352d2e3539342d312e3431382d2e3630382d322e313837762d392e3331632d2e3031332d2e3737352e3138352d312e3533382e3537322d322e32303861342e323520342e323520302030203120312e3632352d312e3539356c372e3838342d342e3539632e3636382d2e33383720312e3432362d2e353920322e3139372d2e353973312e3532392e32303420322e3139372e35396c372e38383420342e353961342e353220342e353220302030203120312e35383920312e363136632e3338342e3636352e35393420312e3431382e36303820322e31383776362e3033326c362e38352d342e303635762d362e303332632e3031332d2e3737352d2e3138352d312e3533382d2e3537322d322e32303861342e323520342e32352030203020302d312e3632352d312e3539354c34312e3435362032342e3539632d2e3636382d2e3338372d312e3432362d2e35392d322e3139372d2e3539732d312e3532392e3230342d322e3139372e35396c2d31342e38363420382e36353561342e323520342e32352030203020302d312e36323520312e353935632d2e3338372e36372d2e35383520312e3433342d2e35373220322e3230387631372e343431632d2e3031332e3737352e31383520312e3533382e35373220322e32303861342e323520342e323520302030203020312e36323520312e3539356c31342e38363420382e363535632e3636382e33383720312e3432362e353920322e3139372e353973312e3532392d2e32303420322e3139372d2e35396c31302e3038312d352e39303120362e38352d342e3036352031302e3038312d352e393031632e3636382d2e33383720312e3432362d2e353920322e3139372d2e353973312e3532392e32303420322e3139372e35396c372e38383420342e353961342e353220342e353220302030203120312e35383920312e363136632e3338342e3636352e35393420312e3431382e36303820322e31383776392e333131632e3031332e3737352d2e31383520312e3533382d2e35373220322e32303861342e323520342e32352030203020312d312e36323520312e3539356c2d372e38383420342e373231632d2e3636382e3338372d312e3432362e35392d322e3139372e3539732d312e3532392d2e3230342d322e3139372d2e35396c2d372e3838342d342e353961342e353220342e35322030203020312d312e3538392d312e363136632d2e3338352d2e3636352d2e3539342d312e3431382d2e3630382d322e313837762d362e3033326c2d362e383520342e30363576362e303332632d2e3031332e3737352e31383520312e3533382e35373220322e32303861342e323520342e323520302030203020312e36323520312e3539356c31342e38363420382e363535632e3636382e33383720312e3432362e353920322e3139372e353973312e3532392d2e32303420322e3139372d2e35396c31342e3836342d382e363535632e3635372d2e33393420312e3230342d2e393520312e3538392d312e363136732e3539342d312e3431382e3630392d322e3138375635352e353338632e3031332d2e3737352d2e3138352d312e3533382d2e3537322d322e32303861342e323520342e32352030203020302d312e3632352d312e3539356c2d31342e3939332d382e3738367a222066696c6c3d2223666666222f3e3c646566733e3c6c696e6561724772616469656e742069643d2242222078313d2230222079313d2230222078323d22323730222079323d2232373022206772616469656e74556e6974733d227573657253706163654f6e557365223e3c73746f702073746f702d636f6c6f723d22236166356465222f3e3c73746f70206f66667365743d2231222073746f702d636f6c6f723d2223306361376534222073746f702d6f7061636974793d222e3939222f3e3c2f6c696e6561724772616469656e743e3c2f646566733e3c7465787420783d2233322e352220793d223233312220666f6e742d73697a653d223237222066696c6c3d2223666666222066696c7465723d2275726c282341292220666f6e742d66616d696c793d22506c7573204a616b617274612053616e732c44656a6156752053616e732c4e6f746f20436f6c6f7220456d6f6a692c4170706c6520436f6c6f7220456d6f6a692c73616e732d73657269662220666f6e742d7765696768743d22626f6c64223e5468697320697320746865207374617274206f662074686520646f6d61696e7320636f6e74726163742e",
  "linkReferences": {},
  "deployedLinkReferences": {}
}